{
  "_format": "hh-sol-artifact-1",
  "contractName": "Randomizer",
  "sourceName": "src/backend/contracts/Randomizer.sol",
  "abi": [
    {
      "inputs": [
        {
          "internalType": "uint64",
          "name": "subscriptionId",
          "type": "uint64"
        }
      ],
      "stateMutability": "nonpayable",
      "type": "constructor"
    },
    {
      "inputs": [
        {
          "internalType": "address",
          "name": "have",
          "type": "address"
        },
        {
          "internalType": "address",
          "name": "want",
          "type": "address"
        }
      ],
      "name": "OnlyCoordinatorCanFulfill",
      "type": "error"
    },
    {
      "inputs": [],
      "name": "firstTime",
      "outputs": [
        {
          "internalType": "bool",
          "name": "",
          "type": "bool"
        }
      ],
      "stateMutability": "view",
      "type": "function"
    },
    {
      "inputs": [
        {
          "internalType": "uint256",
          "name": "requestId",
          "type": "uint256"
        },
        {
          "internalType": "uint256[]",
          "name": "randomWords",
          "type": "uint256[]"
        }
      ],
      "name": "rawFulfillRandomWords",
      "outputs": [],
      "stateMutability": "nonpayable",
      "type": "function"
    },
    {
      "inputs": [],
      "name": "requestRandomWords",
      "outputs": [],
      "stateMutability": "nonpayable",
      "type": "function"
    },
    {
      "inputs": [
        {
          "internalType": "uint256",
          "name": "",
          "type": "uint256"
        }
      ],
      "name": "s_randomWords",
      "outputs": [
        {
          "internalType": "uint256",
          "name": "",
          "type": "uint256"
        }
      ],
      "stateMutability": "view",
      "type": "function"
    },
    {
      "inputs": [],
      "name": "s_requestId",
      "outputs": [
        {
          "internalType": "uint256",
          "name": "",
          "type": "uint256"
        }
      ],
      "stateMutability": "view",
      "type": "function"
    }
  ],
  "bytecode": "0x60a0604052732ca8e0c643bde4c2e08ab1fa0da3401adad7734d600160006101000a81548173ffffffffffffffffffffffffffffffffffffffff021916908373ffffffffffffffffffffffffffffffffffffffff1602179055507f79d3d8832d904592c0bf9818b621522c988bb8b0c05cdc3b15aea1b6e8db0c1560001b6002556207a120600360006101000a81548163ffffffff021916908363ffffffff16021790555060038060046101000a81548161ffff021916908361ffff16021790555060038060066101000a81548163ffffffff021916908363ffffffff16021790555060016003600a6101000a81548160ff02191690831515021790555034801561010957600080fd5b50604051610a72380380610a72833981810160405281019061012b9190610259565b600160009054906101000a900473ffffffffffffffffffffffffffffffffffffffff168073ffffffffffffffffffffffffffffffffffffffff1660808173ffffffffffffffffffffffffffffffffffffffff168152505050600160009054906101000a900473ffffffffffffffffffffffffffffffffffffffff166000806101000a81548173ffffffffffffffffffffffffffffffffffffffff021916908373ffffffffffffffffffffffffffffffffffffffff16021790555080600060146101000a81548167ffffffffffffffff021916908367ffffffffffffffff16021790555050610286565b600080fd5b600067ffffffffffffffff82169050919050565b61023681610219565b811461024157600080fd5b50565b6000815190506102538161022d565b92915050565b60006020828403121561026f5761026e610214565b5b600061027d84828501610244565b91505092915050565b6080516107cb6102a76000396000818160f0015261014401526107cb6000f3fe608060405234801561001057600080fd5b50600436106100575760003560e01c80631fe543e31461005c57806341d76a9c14610078578063e0c8628914610096578063e89e106a146100a0578063f6eaffc8146100be575b600080fd5b61007660048036038101906100719190610535565b6100ee565b005b6100806101ae565b60405161008d91906105ac565b60405180910390f35b61009e6101c1565b005b6100a86102e3565b6040516100b591906105d6565b60405180910390f35b6100d860048036038101906100d391906105f1565b6102e9565b6040516100e591906105d6565b60405180910390f35b7f000000000000000000000000000000000000000000000000000000000000000073ffffffffffffffffffffffffffffffffffffffff163373ffffffffffffffffffffffffffffffffffffffff16146101a057337f00000000000000000000000000000000000000000000000000000000000000006040517f1cf993f400000000000000000000000000000000000000000000000000000000815260040161019792919061065f565b60405180910390fd5b6101aa828261030d565b5050565b6003600a9054906101000a900460ff1681565b60008054906101000a900473ffffffffffffffffffffffffffffffffffffffff1673ffffffffffffffffffffffffffffffffffffffff16635d3b1d30600254600060149054906101000a900467ffffffffffffffff16600360049054906101000a900461ffff16600360009054906101000a900463ffffffff16600360069054906101000a900463ffffffff166040518663ffffffff1660e01b815260040161026e959493929190610700565b602060405180830381600087803b15801561028857600080fd5b505af115801561029c573d6000803e3d6000fd5b505050506040513d601f19601f820116820180604052508101906102c09190610768565b60058190555060006003600a6101000a81548160ff021916908315150217905550565b60055481565b600481815481106102f957600080fd5b906000526020600020016000915090505481565b8060049080519060200190610323929190610328565b505050565b828054828255906000526020600020908101928215610364579160200282015b82811115610363578251825591602001919060010190610348565b5b5090506103719190610375565b5090565b5b8082111561038e576000816000905550600101610376565b5090565b6000604051905090565b600080fd5b600080fd5b6000819050919050565b6103b9816103a6565b81146103c457600080fd5b50565b6000813590506103d6816103b0565b92915050565b600080fd5b6000601f19601f8301169050919050565b7f4e487b7100000000000000000000000000000000000000000000000000000000600052604160045260246000fd5b61042a826103e1565b810181811067ffffffffffffffff82111715610449576104486103f2565b5b80604052505050565b600061045c610392565b90506104688282610421565b919050565b600067ffffffffffffffff821115610488576104876103f2565b5b602082029050602081019050919050565b600080fd5b60006104b16104ac8461046d565b610452565b905080838252602082019050602084028301858111156104d4576104d3610499565b5b835b818110156104fd57806104e988826103c7565b8452602084019350506020810190506104d6565b5050509392505050565b600082601f83011261051c5761051b6103dc565b5b813561052c84826020860161049e565b91505092915050565b6000806040838503121561054c5761054b61039c565b5b600061055a858286016103c7565b925050602083013567ffffffffffffffff81111561057b5761057a6103a1565b5b61058785828601610507565b9150509250929050565b60008115159050919050565b6105a681610591565b82525050565b60006020820190506105c1600083018461059d565b92915050565b6105d0816103a6565b82525050565b60006020820190506105eb60008301846105c7565b92915050565b6000602082840312156106075761060661039c565b5b6000610615848285016103c7565b91505092915050565b600073ffffffffffffffffffffffffffffffffffffffff82169050919050565b60006106498261061e565b9050919050565b6106598161063e565b82525050565b60006040820190506106746000830185610650565b6106816020830184610650565b9392505050565b6000819050919050565b61069b81610688565b82525050565b600067ffffffffffffffff82169050919050565b6106be816106a1565b82525050565b600061ffff82169050919050565b6106db816106c4565b82525050565b600063ffffffff82169050919050565b6106fa816106e1565b82525050565b600060a0820190506107156000830188610692565b61072260208301876106b5565b61072f60408301866106d2565b61073c60608301856106f1565b61074960808301846106f1565b9695505050505050565b600081519050610762816103b0565b92915050565b60006020828403121561077e5761077d61039c565b5b600061078c84828501610753565b9150509291505056fea264697066735822122066886d9c2f5c43445859ccb0b4faa9b6be72b6e868479735cc000865b1d2c5bd64736f6c63430008090033",
  "linkReferences": {},
  "deployedLinkReferences": {}
}