{
  "_format": "hh-sol-artifact-1",
  "contractName": "SlotMachine",
  "sourceName": "src/backend/contracts/SlotMachine.sol",
  "abi": [
    {
      "inputs": [
        {
          "internalType": "address",
          "name": "_randomizerAddress",
          "type": "address"
        }
      ],
      "stateMutability": "nonpayable",
      "type": "constructor"
    },
    {
      "anonymous": false,
      "inputs": [
        {
          "indexed": false,
          "internalType": "uint256",
          "name": "_firstNum",
          "type": "uint256"
        },
        {
          "indexed": false,
          "internalType": "uint256",
          "name": "_secondNum",
          "type": "uint256"
        },
        {
          "indexed": false,
          "internalType": "uint256",
          "name": "_thirdNum",
          "type": "uint256"
        }
      ],
      "name": "AfterSpin",
      "type": "event"
    },
    {
      "inputs": [],
      "name": "minBetAmount",
      "outputs": [
        {
          "internalType": "uint256",
          "name": "",
          "type": "uint256"
        }
      ],
      "stateMutability": "view",
      "type": "function"
    },
    {
      "inputs": [
        {
          "internalType": "address",
          "name": "",
          "type": "address"
        }
      ],
      "name": "playerBalance",
      "outputs": [
        {
          "internalType": "uint256",
          "name": "",
          "type": "uint256"
        }
      ],
      "stateMutability": "view",
      "type": "function"
    },
    {
      "inputs": [],
      "name": "sendFundsToContract",
      "outputs": [],
      "stateMutability": "payable",
      "type": "function"
    },
    {
      "inputs": [
        {
          "internalType": "uint256",
          "name": "_amount",
          "type": "uint256"
        }
      ],
      "name": "spin",
      "outputs": [],
      "stateMutability": "nonpayable",
      "type": "function"
    },
    {
      "inputs": [],
      "name": "withdrawFunds",
      "outputs": [],
      "stateMutability": "nonpayable",
      "type": "function"
    },
    {
      "stateMutability": "payable",
      "type": "receive"
    }
  ],
  "bytecode": "0x6080604052655af3107a40006002553480156200001b57600080fd5b506040516200118b3803806200118b8339818101604052810190620000419190620000f2565b806000806101000a81548173ffffffffffffffffffffffffffffffffffffffff021916908373ffffffffffffffffffffffffffffffffffffffff1602179055505062000124565b600080fd5b600073ffffffffffffffffffffffffffffffffffffffff82169050919050565b6000620000ba826200008d565b9050919050565b620000cc81620000ad565b8114620000d857600080fd5b50565b600081519050620000ec81620000c1565b92915050565b6000602082840312156200010b576200010a62000088565b5b60006200011b84828501620000db565b91505092915050565b61105780620001346000396000f3fe60806040526004361061004e5760003560e01c806324600fc31461005a5780634e33f83b14610071578063a5b6ea8f146100ae578063e6f45273146100d7578063fa968eea146100e157610055565b3661005557005b600080fd5b34801561006657600080fd5b5061006f61010c565b005b34801561007d57600080fd5b5061009860048036038101906100939190610a31565b610245565b6040516100a59190610a77565b60405180910390f35b3480156100ba57600080fd5b506100d560048036038101906100d09190610abe565b61025d565b005b6100df610970565b005b3480156100ed57600080fd5b506100f66109c8565b6040516101039190610a77565b60405180910390f35b6000600160003373ffffffffffffffffffffffffffffffffffffffff1673ffffffffffffffffffffffffffffffffffffffff1681526020019081526020016000205490506000600160003373ffffffffffffffffffffffffffffffffffffffff1673ffffffffffffffffffffffffffffffffffffffff1681526020019081526020016000208190555060003373ffffffffffffffffffffffffffffffffffffffff16826040516101bb90610b1c565b60006040518083038185875af1925050503d80600081146101f8576040519150601f19603f3d011682016040523d82523d6000602084013e6101fd565b606091505b5050905080610241576040517f08c379a000000000000000000000000000000000000000000000000000000000815260040161023890610b8e565b60405180910390fd5b5050565b60016020528060005260406000206000915090505481565b600160003373ffffffffffffffffffffffffffffffffffffffff1673ffffffffffffffffffffffffffffffffffffffff168152602001908152602001600020548111156102df576040517f08c379a00000000000000000000000000000000000000000000000000000000081526004016102d690610c46565b60405180910390fd5b600254811015610324576040517f08c379a000000000000000000000000000000000000000000000000000000000815260040161031b90610cd8565b60405180910390fd5b80600160003373ffffffffffffffffffffffffffffffffffffffff1673ffffffffffffffffffffffffffffffffffffffff16815260200190815260200160002060008282546103739190610d27565b9250508190555060008054906101000a900473ffffffffffffffffffffffffffffffffffffffff1673ffffffffffffffffffffffffffffffffffffffff1663e0c862896040518163ffffffff1660e01b8152600401600060405180830381600087803b1580156103e257600080fd5b505af11580156103f6573d6000803e3d6000fd5b505050506000806001600660008054906101000a900473ffffffffffffffffffffffffffffffffffffffff1673ffffffffffffffffffffffffffffffffffffffff1663f6eaffc860006040518263ffffffff1660e01b815260040161045b9190610da0565b60206040518083038186803b15801561047357600080fd5b505afa158015610487573d6000803e3d6000fd5b505050506040513d601f19601f820116820180604052508101906104ab9190610dd0565b6104b59190610e2c565b6104bf9190610e5d565b905060006001600660008054906101000a900473ffffffffffffffffffffffffffffffffffffffff1673ffffffffffffffffffffffffffffffffffffffff1663f6eaffc860016040518263ffffffff1660e01b81526004016105219190610eee565b60206040518083038186803b15801561053957600080fd5b505afa15801561054d573d6000803e3d6000fd5b505050506040513d601f19601f820116820180604052508101906105719190610dd0565b61057b9190610e2c565b6105859190610e5d565b905060006001600660008054906101000a900473ffffffffffffffffffffffffffffffffffffffff1673ffffffffffffffffffffffffffffffffffffffff1663f6eaffc860026040518263ffffffff1660e01b81526004016105e79190610f44565b60206040518083038186803b1580156105ff57600080fd5b505afa158015610613573d6000803e3d6000fd5b505050506040513d601f19601f820116820180604052508101906106379190610dd0565b6106419190610e2c565b61064b9190610e5d565b90507fe668c8abdeae5a625527f45ecb22ea0ed1765475f2198a79694374f50c01dac683838360405161068093929190610f5f565b60405180910390a16007831480156106985750600782145b80156106a45750600781145b15610781578460646032876106b99190610f96565b6106c39190610ff0565b6106cd9190610e5d565b935060003373ffffffffffffffffffffffffffffffffffffffff16856040516106f590610b1c565b60006040518083038185875af1925050503d8060008114610732576040519150601f19603f3d011682016040523d82523d6000602084013e610737565b606091505b505090508061077b576040517f08c379a000000000000000000000000000000000000000000000000000000000815260040161077290610b8e565b60405180910390fd5b50610969565b818314801561078f57508082145b801561079a57508281145b1561087757846064601e876107af9190610f96565b6107b99190610ff0565b6107c39190610e5d565b935060003373ffffffffffffffffffffffffffffffffffffffff16856040516107eb90610b1c565b60006040518083038185875af1925050503d8060008114610828576040519150601f19603f3d011682016040523d82523d6000602084013e61082d565b606091505b5050905080610871576040517f08c379a000000000000000000000000000000000000000000000000000000000815260040161086890610b8e565b60405180910390fd5b50610968565b8183148061088457508082145b8061088e57508281145b15610967578460646014876108a39190610f96565b6108ad9190610ff0565b6108b79190610e5d565b935060003373ffffffffffffffffffffffffffffffffffffffff16856040516108df90610b1c565b60006040518083038185875af1925050503d806000811461091c576040519150601f19603f3d011682016040523d82523d6000602084013e610921565b606091505b5050905080610965576040517f08c379a000000000000000000000000000000000000000000000000000000000815260040161095c90610b8e565b60405180910390fd5b505b5b5b5050505050565b34600160003373ffffffffffffffffffffffffffffffffffffffff1673ffffffffffffffffffffffffffffffffffffffff16815260200190815260200160002060008282546109bf9190610e5d565b92505081905550565b60025481565b600080fd5b600073ffffffffffffffffffffffffffffffffffffffff82169050919050565b60006109fe826109d3565b9050919050565b610a0e816109f3565b8114610a1957600080fd5b50565b600081359050610a2b81610a05565b92915050565b600060208284031215610a4757610a466109ce565b5b6000610a5584828501610a1c565b91505092915050565b6000819050919050565b610a7181610a5e565b82525050565b6000602082019050610a8c6000830184610a68565b92915050565b610a9b81610a5e565b8114610aa657600080fd5b50565b600081359050610ab881610a92565b92915050565b600060208284031215610ad457610ad36109ce565b5b6000610ae284828501610aa9565b91505092915050565b600081905092915050565b50565b6000610b06600083610aeb565b9150610b1182610af6565b600082019050919050565b6000610b2782610af9565b9150819050919050565b600082825260208201905092915050565b7f4661696c656420746f2073656e64204574686572000000000000000000000000600082015250565b6000610b78601483610b31565b9150610b8382610b42565b602082019050919050565b60006020820190508181036000830152610ba781610b6b565b9050919050565b7f536f7272792c20596f752068617665206e6f742073656e7420656e6f7567682060008201527f66756e647320746f2074686520636f6e747261637420746f20706572666f726d60208201527f2074686973206f7065726174696f6e0000000000000000000000000000000000604082015250565b6000610c30604f83610b31565b9150610c3b82610bae565b606082019050919050565b60006020820190508181036000830152610c5f81610c23565b9050919050565b7f596f75206e65656420746f2073656e64206174206c6561737420302e3030303160008201527f20657468657220746f2062657400000000000000000000000000000000000000602082015250565b6000610cc2602d83610b31565b9150610ccd82610c66565b604082019050919050565b60006020820190508181036000830152610cf181610cb5565b9050919050565b7f4e487b7100000000000000000000000000000000000000000000000000000000600052601160045260246000fd5b6000610d3282610a5e565b9150610d3d83610a5e565b925082821015610d5057610d4f610cf8565b5b828203905092915050565b6000819050919050565b6000819050919050565b6000610d8a610d85610d8084610d5b565b610d65565b610a5e565b9050919050565b610d9a81610d6f565b82525050565b6000602082019050610db56000830184610d91565b92915050565b600081519050610dca81610a92565b92915050565b600060208284031215610de657610de56109ce565b5b6000610df484828501610dbb565b91505092915050565b7f4e487b7100000000000000000000000000000000000000000000000000000000600052601260045260246000fd5b6000610e3782610a5e565b9150610e4283610a5e565b925082610e5257610e51610dfd565b5b828206905092915050565b6000610e6882610a5e565b9150610e7383610a5e565b9250827fffffffffffffffffffffffffffffffffffffffffffffffffffffffffffffffff03821115610ea857610ea7610cf8565b5b828201905092915050565b6000819050919050565b6000610ed8610ed3610ece84610eb3565b610d65565b610a5e565b9050919050565b610ee881610ebd565b82525050565b6000602082019050610f036000830184610edf565b92915050565b6000819050919050565b6000610f2e610f29610f2484610f09565b610d65565b610a5e565b9050919050565b610f3e81610f13565b82525050565b6000602082019050610f596000830184610f35565b92915050565b6000606082019050610f746000830186610a68565b610f816020830185610a68565b610f8e6040830184610a68565b949350505050565b6000610fa182610a5e565b9150610fac83610a5e565b9250817fffffffffffffffffffffffffffffffffffffffffffffffffffffffffffffffff0483118215151615610fe557610fe4610cf8565b5b828202905092915050565b6000610ffb82610a5e565b915061100683610a5e565b92508261101657611015610dfd565b5b82820490509291505056fea2646970667358221220a67244b889c1b8256bc29188e80ddfaa5b4cbed169a2ef5014d4723b7f798af264736f6c63430008090033",
  "linkReferences": {},
  "deployedLinkReferences": {}
}